{
  "contractName": "SolnSquareVerifier",
  "abi": [
    {
      "constant": true,
      "inputs": [
        {
          "name": "interfaceId",
          "type": "bytes4"
        }
      ],
      "name": "supportsInterface",
      "outputs": [
        {
          "name": "",
          "type": "bool"
        }
      ],
      "payable": false,
      "stateMutability": "view",
      "type": "function"
    },
    {
      "constant": true,
      "inputs": [
        {
          "name": "tokenId",
          "type": "uint256"
        }
      ],
      "name": "getApproved",
      "outputs": [
        {
          "name": "",
          "type": "address"
        }
      ],
      "payable": false,
      "stateMutability": "view",
      "type": "function"
    },
    {
      "constant": false,
      "inputs": [
        {
          "name": "to",
          "type": "address"
        },
        {
          "name": "tokenId",
          "type": "uint256"
        }
      ],
      "name": "approve",
      "outputs": [],
      "payable": false,
      "stateMutability": "nonpayable",
      "type": "function"
    },
    {
      "constant": true,
      "inputs": [],
      "name": "getSymbol",
      "outputs": [
        {
          "name": "",
          "type": "string"
        }
      ],
      "payable": false,
      "stateMutability": "view",
      "type": "function"
    },
    {
      "constant": false,
      "inputs": [
        {
          "name": "status",
          "type": "bool"
        }
      ],
      "name": "setPaused",
      "outputs": [],
      "payable": false,
      "stateMutability": "nonpayable",
      "type": "function"
    },
    {
      "constant": true,
      "inputs": [],
      "name": "getName",
      "outputs": [
        {
          "name": "",
          "type": "string"
        }
      ],
      "payable": false,
      "stateMutability": "view",
      "type": "function"
    },
    {
      "constant": true,
      "inputs": [],
      "name": "totalSupply",
      "outputs": [
        {
          "name": "",
          "type": "uint256"
        }
      ],
      "payable": false,
      "stateMutability": "view",
      "type": "function"
    },
    {
      "constant": false,
      "inputs": [
        {
          "name": "from",
          "type": "address"
        },
        {
          "name": "to",
          "type": "address"
        },
        {
          "name": "tokenId",
          "type": "uint256"
        }
      ],
      "name": "transferFrom",
      "outputs": [],
      "payable": false,
      "stateMutability": "nonpayable",
      "type": "function"
    },
    {
      "constant": false,
      "inputs": [
        {
          "name": "_myid",
          "type": "bytes32"
        },
        {
          "name": "_result",
          "type": "string"
        }
      ],
      "name": "__callback",
      "outputs": [],
      "payable": false,
      "stateMutability": "nonpayable",
      "type": "function"
    },
    {
      "constant": true,
      "inputs": [
        {
          "name": "owner",
          "type": "address"
        },
        {
          "name": "index",
          "type": "uint256"
        }
      ],
      "name": "tokenOfOwnerByIndex",
      "outputs": [
        {
          "name": "",
          "type": "uint256"
        }
      ],
      "payable": false,
      "stateMutability": "view",
      "type": "function"
    },
    {
      "constant": false,
      "inputs": [
        {
          "name": "_myid",
          "type": "bytes32"
        },
        {
          "name": "_result",
          "type": "string"
        },
        {
          "name": "_proof",
          "type": "bytes"
        }
      ],
      "name": "__callback",
      "outputs": [],
      "payable": false,
      "stateMutability": "nonpayable",
      "type": "function"
    },
    {
      "constant": false,
      "inputs": [
        {
          "name": "from",
          "type": "address"
        },
        {
          "name": "to",
          "type": "address"
        },
        {
          "name": "tokenId",
          "type": "uint256"
        }
      ],
      "name": "safeTransferFrom",
      "outputs": [],
      "payable": false,
      "stateMutability": "nonpayable",
      "type": "function"
    },
    {
      "constant": true,
      "inputs": [
        {
          "name": "index",
          "type": "uint256"
        }
      ],
      "name": "tokenByIndex",
      "outputs": [
        {
          "name": "",
          "type": "uint256"
        }
      ],
      "payable": false,
      "stateMutability": "view",
      "type": "function"
    },
    {
      "constant": false,
      "inputs": [
        {
          "name": "a",
          "type": "uint256[2]"
        },
        {
          "name": "b",
          "type": "uint256[2][2]"
        },
        {
          "name": "c",
          "type": "uint256[2]"
        },
        {
          "name": "input",
          "type": "uint256[2]"
        }
      ],
      "name": "verifyTx",
      "outputs": [
        {
          "name": "r",
          "type": "bool"
        }
      ],
      "payable": false,
      "stateMutability": "nonpayable",
      "type": "function"
    },
    {
      "constant": true,
      "inputs": [
        {
          "name": "tokenId",
          "type": "uint256"
        }
      ],
      "name": "ownerOf",
      "outputs": [
        {
          "name": "",
          "type": "address"
        }
      ],
      "payable": false,
      "stateMutability": "view",
      "type": "function"
    },
    {
      "constant": true,
      "inputs": [
        {
          "name": "owner",
          "type": "address"
        }
      ],
      "name": "balanceOf",
      "outputs": [
        {
          "name": "",
          "type": "uint256"
        }
      ],
      "payable": false,
      "stateMutability": "view",
      "type": "function"
    },
    {
      "constant": true,
      "inputs": [],
      "name": "getOwner",
      "outputs": [
        {
          "name": "",
          "type": "address"
        }
      ],
      "payable": false,
      "stateMutability": "view",
      "type": "function"
    },
    {
      "constant": false,
      "inputs": [
        {
          "name": "to",
          "type": "address"
        },
        {
          "name": "approved",
          "type": "bool"
        }
      ],
      "name": "setApprovalForAll",
      "outputs": [],
      "payable": false,
      "stateMutability": "nonpayable",
      "type": "function"
    },
    {
      "constant": false,
      "inputs": [
        {
          "name": "from",
          "type": "address"
        },
        {
          "name": "to",
          "type": "address"
        },
        {
          "name": "tokenId",
          "type": "uint256"
        },
        {
          "name": "_data",
          "type": "bytes"
        }
      ],
      "name": "safeTransferFrom",
      "outputs": [],
      "payable": false,
      "stateMutability": "nonpayable",
      "type": "function"
    },
    {
      "constant": true,
      "inputs": [],
      "name": "getBaseTokenURI",
      "outputs": [
        {
          "name": "",
          "type": "string"
        }
      ],
      "payable": false,
      "stateMutability": "view",
      "type": "function"
    },
    {
      "constant": true,
      "inputs": [
        {
          "name": "tokenId",
          "type": "uint256"
        }
      ],
      "name": "tokenURI",
      "outputs": [
        {
          "name": "",
          "type": "string"
        }
      ],
      "payable": false,
      "stateMutability": "view",
      "type": "function"
    },
    {
      "constant": true,
      "inputs": [
        {
          "name": "owner",
          "type": "address"
        },
        {
          "name": "operator",
          "type": "address"
        }
      ],
      "name": "isApprovedForAll",
      "outputs": [
        {
          "name": "",
          "type": "bool"
        }
      ],
      "payable": false,
      "stateMutability": "view",
      "type": "function"
    },
    {
      "constant": false,
      "inputs": [
        {
          "name": "newOwner",
          "type": "address"
        }
      ],
      "name": "transferOwnership",
      "outputs": [],
      "payable": false,
      "stateMutability": "nonpayable",
      "type": "function"
    },
    {
      "inputs": [],
      "payable": false,
      "stateMutability": "nonpayable",
      "type": "constructor"
    },
    {
      "anonymous": false,
      "inputs": [
        {
          "indexed": false,
          "name": "tokenId",
          "type": "uint256"
        },
        {
          "indexed": false,
          "name": "sender",
          "type": "address"
        },
        {
          "indexed": false,
          "name": "solutionKey",
          "type": "bytes32"
        }
      ],
      "name": "SolutionAdded",
      "type": "event"
    },
    {
      "anonymous": false,
      "inputs": [
        {
          "indexed": true,
          "name": "from",
          "type": "address"
        },
        {
          "indexed": true,
          "name": "to",
          "type": "address"
        },
        {
          "indexed": true,
          "name": "tokenId",
          "type": "uint256"
        }
      ],
      "name": "Transfer",
      "type": "event"
    },
    {
      "anonymous": false,
      "inputs": [
        {
          "indexed": true,
          "name": "owner",
          "type": "address"
        },
        {
          "indexed": true,
          "name": "approved",
          "type": "address"
        },
        {
          "indexed": true,
          "name": "tokenId",
          "type": "uint256"
        }
      ],
      "name": "Approval",
      "type": "event"
    },
    {
      "anonymous": false,
      "inputs": [
        {
          "indexed": true,
          "name": "owner",
          "type": "address"
        },
        {
          "indexed": true,
          "name": "operator",
          "type": "address"
        },
        {
          "indexed": false,
          "name": "approved",
          "type": "bool"
        }
      ],
      "name": "ApprovalForAll",
      "type": "event"
    },
    {
      "anonymous": false,
      "inputs": [
        {
          "indexed": false,
          "name": "triggeredBy",
          "type": "address"
        }
      ],
      "name": "Paused",
      "type": "event"
    },
    {
      "anonymous": false,
      "inputs": [
        {
          "indexed": false,
          "name": "triggeredBy",
          "type": "address"
        }
      ],
      "name": "Unpaused",
      "type": "event"
    },
    {
      "anonymous": false,
      "inputs": [
        {
          "indexed": false,
          "name": "previousOwner",
          "type": "address"
        },
        {
          "indexed": false,
          "name": "newOwner",
          "type": "address"
        }
      ],
      "name": "OwnershipTransferred",
      "type": "event"
    },
    {
      "anonymous": false,
      "inputs": [
        {
          "indexed": false,
          "name": "s",
          "type": "string"
        }
      ],
      "name": "Verified",
      "type": "event"
    },
    {
      "constant": false,
      "inputs": [
        {
          "name": "tokenId",
          "type": "uint256"
        },
        {
          "name": "sender",
          "type": "address"
        },
        {
          "name": "a",
          "type": "uint256[2]"
        },
        {
          "name": "b",
          "type": "uint256[2][2]"
        },
        {
          "name": "c",
          "type": "uint256[2]"
        },
        {
          "name": "input",
          "type": "uint256[2]"
        }
      ],
      "name": "addSolution",
      "outputs": [],
      "payable": false,
      "stateMutability": "nonpayable",
      "type": "function"
    },
    {
      "constant": false,
      "inputs": [
        {
          "name": "to",
          "type": "address"
        },
        {
          "name": "tokenId",
          "type": "uint256"
        }
      ],
      "name": "mint",
      "outputs": [
        {
          "name": "",
          "type": "bool"
        }
      ],
      "payable": false,
      "stateMutability": "nonpayable",
      "type": "function"
    }
  ],
  "bytecode": "0x6080604052606060405190810160405280603f81526020017f68747470733a2f2f73332d75732d776573742d322e616d617a6f6e6177732e6381526020017f6f6d2f756461636974792d626c6f636b636861696e2f63617073746f6e652f0081525060139080519060200190620000789291906200067c565b503480156200008657600080fd5b506040805190810160405280600981526020017f43617073746f6e657300000000000000000000000000000000000000000000008152506040805190810160405280600181526020017f5b00000000000000000000000000000000000000000000000000000000000000815250818160138054600181600116156101000203166002900480601f0160208091040260200160405190810160405280929190818152602001828054600181600116156101000203166002900480156200018f5780601f1062000163576101008083540402835291602001916200018f565b820191906000526020600020905b8154815290600101906020018083116200017157829003601f168201915b5050505050336000806101000a81548173ffffffffffffffffffffffffffffffffffffffff021916908373ffffffffffffffffffffffffffffffffffffffff1602179055507f8be0079c531659141344cd1fd0a4f28419497f9722a3daafe3b4186f6b6457e060008060009054906101000a900473ffffffffffffffffffffffffffffffffffffffff16604051808373ffffffffffffffffffffffffffffffffffffffff1673ffffffffffffffffffffffffffffffffffffffff1681526020018273ffffffffffffffffffffffffffffffffffffffff1673ffffffffffffffffffffffffffffffffffffffff1681526020019250505060405180910390a1620002a86000620003f2640100000000026401000000009004565b620002e56301ffc9a77c010000000000000000000000000000000000000000000000000000000002620005be640100000000026401000000009004565b620003226380ac58cd7c010000000000000000000000000000000000000000000000000000000002620005be640100000000026401000000009004565b6200035f63780e9d637c010000000000000000000000000000000000000000000000000000000002620005be640100000000026401000000009004565b82600f9080519060200190620003779291906200067c565b508160109080519060200190620003909291906200067c565b508060119080519060200190620003a99291906200067c565b50620003e7635b5e139f7c010000000000000000000000000000000000000000000000000000000002620005be640100000000026401000000009004565b50505050506200072b565b6000809054906101000a900473ffffffffffffffffffffffffffffffffffffffff1673ffffffffffffffffffffffffffffffffffffffff163373ffffffffffffffffffffffffffffffffffffffff16141515620004b7576040517f08c379a000000000000000000000000000000000000000000000000000000000815260040180806020018281038252601c8152602001807f43616c6c6572206973206e6f7420636f6e7472616374206f776e65720000000081525060200191505060405180910390fd5b80600060146101000a81548160ff02191690831515021790555060011515600060149054906101000a900460ff161515141562000557577f62e78cea01bee320cd4e420270b5ea74000d11b0c9f74754ebdbfc544b05a25833604051808273ffffffffffffffffffffffffffffffffffffffff1673ffffffffffffffffffffffffffffffffffffffff16815260200191505060405180910390a1620005bb565b7f5db9ee0a495bf2e6ff9c91a7834c1ba4fdd244a5e8aa4e537bd38aeae4b073aa33604051808273ffffffffffffffffffffffffffffffffffffffff1673ffffffffffffffffffffffffffffffffffffffff16815260200191505060405180910390a15b50565b63ffffffff7c010000000000000000000000000000000000000000000000000000000002817bffffffffffffffffffffffffffffffffffffffffffffffffffffffff1916141515156200061057600080fd5b6001806000837bffffffffffffffffffffffffffffffffffffffffffffffffffffffff19167bffffffffffffffffffffffffffffffffffffffffffffffffffffffff1916815260200190815260200160002060006101000a81548160ff02191690831515021790555050565b828054600181600116156101000203166002900490600052602060002090601f016020900481019282601f10620006bf57805160ff1916838001178555620006f0565b82800160010185558215620006f0579182015b82811115620006ef578251825591602001919060010190620006d2565b5b509050620006ff919062000703565b5090565b6200072891905b80821115620007245760008160009055506001016200070a565b5090565b90565b614102806200073b6000396000f3fe608060405260043610610143576000357c01000000000000000000000000000000000000000000000000000000009004806301ffc9a714610148578063081812fc146101ba578063095ea7b314610235578063150704011461029057806316c38b3c1461032057806317d7de7c1461035d57806318160ddd146103ed57806323b872dd1461041857806327dc297e146104935780632f745c591461056557806338bbfa50146105d457806340c10f191461073d57806342842e0e146107b05780634f6ccce71461082b578063621e9ec01461087a5780636352211e14610a0057806370a0823114610a7b578063893d20e814610ae0578063a22cb46514610b37578063b0bf8aec14610b94578063b88d4fde14610d2c578063bdc32be014610e3e578063c87b56dd14610ece578063e985e9c514610f82578063f2fde38b1461100b575b600080fd5b34801561015457600080fd5b506101a06004803603602081101561016b57600080fd5b8101908080357bffffffffffffffffffffffffffffffffffffffffffffffffffffffff1916906020019092919050505061105c565b604051808215151515815260200191505060405180910390f35b3480156101c657600080fd5b506101f3600480360360208110156101dd57600080fd5b81019080803590602001909291905050506110c4565b604051808273ffffffffffffffffffffffffffffffffffffffff1673ffffffffffffffffffffffffffffffffffffffff16815260200191505060405180910390f35b34801561024157600080fd5b5061028e6004803603604081101561025857600080fd5b81019080803573ffffffffffffffffffffffffffffffffffffffff169060200190929190803590602001909291905050506110cb565b005b34801561029c57600080fd5b506102a56110cf565b6040518080602001828103825283818151815260200191508051906020019080838360005b838110156102e55780820151818401526020810190506102ca565b50505050905090810190601f1680156103125780820380516001836020036101000a031916815260200191505b509250505060405180910390f35b34801561032c57600080fd5b5061035b6004803603602081101561034357600080fd5b81019080803515159060200190929190505050611171565b005b34801561036957600080fd5b5061037261133a565b6040518080602001828103825283818151815260200191508051906020019080838360005b838110156103b2578082015181840152602081019050610397565b50505050905090810190601f1680156103df5780820380516001836020036101000a031916815260200191505b509250505060405180910390f35b3480156103f957600080fd5b506104026113dc565b6040518082815260200191505060405180910390f35b34801561042457600080fd5b506104916004803603606081101561043b57600080fd5b81019080803573ffffffffffffffffffffffffffffffffffffffff169060200190929190803573ffffffffffffffffffffffffffffffffffffffff169060200190929190803590602001909291905050506113e9565b005b34801561049f57600080fd5b50610563600480360360408110156104b657600080fd5b8101908080359060200190929190803590602001906401000000008111156104dd57600080fd5b8201836020820111156104ef57600080fd5b8035906020019184600183028401116401000000008311171561051157600080fd5b91908080601f016020809104026020016040519081016040528093929190818152602001838380828437600081840152601f19601f82011690508083019250505050505050919291929050505061140e565b005b34801561057157600080fd5b506105be6004803603604081101561058857600080fd5b81019080803573ffffffffffffffffffffffffffffffffffffffff16906020019092919080359060200190929190505050611451565b6040518082815260200191505060405180910390f35b3480156105e057600080fd5b5061073b600480360360608110156105f757600080fd5b81019080803590602001909291908035906020019064010000000081111561061e57600080fd5b82018360208201111561063057600080fd5b8035906020019184600183028401116401000000008311171561065257600080fd5b91908080601f016020809104026020016040519081016040528093929190818152602001838380828437600081840152601f19601f820116905080830192505050505050509192919290803590602001906401000000008111156106b557600080fd5b8201836020820111156106c757600080fd5b803590602001918460018302840111640100000000831117156106e957600080fd5b91908080601f016020809104026020016040519081016040528093929190818152602001838380828437600081840152601f19601f8201169050808301925050505050505091929192905050506114c8565b005b34801561074957600080fd5b506107966004803603604081101561076057600080fd5b81019080803573ffffffffffffffffffffffffffffffffffffffff169060200190929190803590602001909291905050506114cd565b604051808215151515815260200191505060405180910390f35b3480156107bc57600080fd5b50610829600480360360608110156107d357600080fd5b81019080803573ffffffffffffffffffffffffffffffffffffffff169060200190929190803573ffffffffffffffffffffffffffffffffffffffff1690602001909291908035906020019092919050505061159f565b005b34801561083757600080fd5b506108646004803603602081101561084e57600080fd5b81019080803590602001909291905050506115c0565b6040518082815260200191505060405180910390f35b34801561088657600080fd5b506109e6600480360361014081101561089e57600080fd5b8101908080604001906002806020026040519081016040528092919082600260200280828437600081840152601f19601f82011690508083019250505050505091929192908060800190600280602002604051908101604052809291906000905b82821015610953578382604002016002806020026040519081016040528092919082600260200280828437600081840152601f19601f820116905080830192505050505050815260200190600101906108ff565b50505050919291929080604001906002806020026040519081016040528092919082600260200280828437600081840152601f19601f820116905080830192505050505050919291929080604001906002806020026040519081016040528092919082600260200280828437600081840152601f19601f82011690508083019250505050505091929192905050506115f8565b604051808215151515815260200191505060405180910390f35b348015610a0c57600080fd5b50610a3960048036036020811015610a2357600080fd5b81019080803590602001909291905050506118a0565b604051808273ffffffffffffffffffffffffffffffffffffffff1673ffffffffffffffffffffffffffffffffffffffff16815260200191505060405180910390f35b348015610a8757600080fd5b50610aca60048036036020811015610a9e57600080fd5b81019080803573ffffffffffffffffffffffffffffffffffffffff1690602001909291905050506118a7565b6040518082815260200191505060405180910390f35b348015610aec57600080fd5b50610af56118ae565b604051808273ffffffffffffffffffffffffffffffffffffffff1673ffffffffffffffffffffffffffffffffffffffff16815260200191505060405180910390f35b348015610b4357600080fd5b50610b9260048036036040811015610b5a57600080fd5b81019080803573ffffffffffffffffffffffffffffffffffffffff1690602001909291908035151590602001909291905050506118d7565b005b348015610ba057600080fd5b50610d2a6004803603610180811015610bb857600080fd5b8101908080359060200190929190803573ffffffffffffffffffffffffffffffffffffffff16906020019092919080604001906002806020026040519081016040528092919082600260200280828437600081840152601f19601f82011690508083019250505050505091929192908060800190600280602002604051908101604052809291906000905b82821015610c97578382604002016002806020026040519081016040528092919082600260200280828437600081840152601f19601f82011690508083019250505050505081526020019060010190610c43565b50505050919291929080604001906002806020026040519081016040528092919082600260200280828437600081840152601f19601f820116905080830192505050505050919291929080604001906002806020026040519081016040528092919082600260200280828437600081840152601f19601f8201169050808301925050505050509192919290505050611a13565b005b348015610d3857600080fd5b50610e3c60048036036080811015610d4f57600080fd5b81019080803573ffffffffffffffffffffffffffffffffffffffff169060200190929190803573ffffffffffffffffffffffffffffffffffffffff1690602001909291908035906020019092919080359060200190640100000000811115610db657600080fd5b820183602082011115610dc857600080fd5b80359060200191846001830284011164010000000083111715610dea57600080fd5b91908080601f016020809104026020016040519081016040528093929190818152602001838380828437600081840152601f19601f820116905080830192505050505050509192919290505050611e66565b005b348015610e4a57600080fd5b50610e53611e8e565b6040518080602001828103825283818151815260200191508051906020019080838360005b83811015610e93578082015181840152602081019050610e78565b50505050905090810190601f168015610ec05780820380516001836020036101000a031916815260200191505b509250505060405180910390f35b348015610eda57600080fd5b50610f0760048036036020811015610ef157600080fd5b8101908080359060200190929190505050611f30565b6040518080602001828103825283818151815260200191508051906020019080838360005b83811015610f47578082015181840152602081019050610f2c565b50505050905090810190601f168015610f745780820380516001836020036101000a031916815260200191505b509250505060405180910390f35b348015610f8e57600080fd5b50610ff160048036036040811015610fa557600080fd5b81019080803573ffffffffffffffffffffffffffffffffffffffff169060200190929190803573ffffffffffffffffffffffffffffffffffffffff169060200190929190505050611ff9565b604051808215151515815260200191505060405180910390f35b34801561101757600080fd5b5061105a6004803603602081101561102e57600080fd5b81019080803573ffffffffffffffffffffffffffffffffffffffff16906020019092919050505061208d565b005b600060016000837bffffffffffffffffffffffffffffffffffffffffffffffffffffffff19167bffffffffffffffffffffffffffffffffffffffffffffffffffffffff1916815260200190815260200160002060009054906101000a900460ff169050919050565b6000919050565b5050565b606060108054600181600116156101000203166002900480601f0160208091040260200160405190810160405280929190818152602001828054600181600116156101000203166002900480156111675780601f1061113c57610100808354040283529160200191611167565b820191906000526020600020905b81548152906001019060200180831161114a57829003601f168201915b5050505050905090565b6000809054906101000a900473ffffffffffffffffffffffffffffffffffffffff1673ffffffffffffffffffffffffffffffffffffffff163373ffffffffffffffffffffffffffffffffffffffff16141515611235576040517f08c379a000000000000000000000000000000000000000000000000000000000815260040180806020018281038252601c8152602001807f43616c6c6572206973206e6f7420636f6e7472616374206f776e65720000000081525060200191505060405180910390fd5b80600060146101000a81548160ff02191690831515021790555060011515600060149054906101000a900460ff16151514156112d3577f62e78cea01bee320cd4e420270b5ea74000d11b0c9f74754ebdbfc544b05a25833604051808273ffffffffffffffffffffffffffffffffffffffff1673ffffffffffffffffffffffffffffffffffffffff16815260200191505060405180910390a1611337565b7f5db9ee0a495bf2e6ff9c91a7834c1ba4fdd244a5e8aa4e537bd38aeae4b073aa33604051808273ffffffffffffffffffffffffffffffffffffffff1673ffffffffffffffffffffffffffffffffffffffff16815260200191505060405180910390a15b50565b6060600f8054600181600116156101000203166002900480601f0160208091040260200160405190810160405280929190818152602001828054600181600116156101000203166002900480156113d25780601f106113a7576101008083540402835291602001916113d2565b820191906000526020600020905b8154815290600101906020018083116113b557829003601f168201915b5050505050905090565b6000600880549050905090565b6113f333826122f7565b15156113fe57600080fd5b61140983838361238c565b505050565b61144d828260006040519080825280601f01601f1916602001820160405280156114475781602001600182028038833980820191505090505b506114c8565b5050565b600061145c836118a7565b8210151561146957600080fd5b600660008473ffffffffffffffffffffffffffffffffffffffff1673ffffffffffffffffffffffffffffffffffffffff168152602001908152602001600020828154811015156114b557fe5b9060005260206000200154905092915050565b505050565b60006016600083815260200190815260200160002060030160009054906101000a900460ff16151561158d576040517f08c379a000000000000000000000000000000000000000000000000000000000815260040180806020018281038252602a8152602001807f526571756972657320736f6c7574696f6e20686173206265656e20616464656481526020017f20666f7220746f6b656e0000000000000000000000000000000000000000000081525060400191505060405180910390fd5b61159783836123b0565b905092915050565b6115bb8383836020604051908101604052806000815250611e66565b505050565b60006115ca6113dc565b821015156115d757600080fd5b6008828154811015156115e657fe5b90600052602060002001549050919050565b6000611602613e5d565b604080519081016040528087600060028110151561161c57fe5b6020020151815260200187600160028110151561163557fe5b602002015181525081600001819052506040805190810160405280604080519081016040528088600060028110151561166a57fe5b6020020151600060028110151561167d57fe5b6020020151815260200188600060028110151561169657fe5b602002015160016002811015156116a957fe5b6020020151815250815260200160408051908101604052808860016002811015156116d057fe5b602002015160006002811015156116e357fe5b602002015181526020018860016002811015156116fc57fe5b6020020151600160028110151561170f57fe5b60200201518152508152508160200181905250604080519081016040528085600060028110151561173c57fe5b6020020151815260200185600160028110151561175557fe5b60200201518152508160400181905250606060026040519080825280602002602001820160405280156117975781602001602082028038833980820191505090505b50905060008090505b60028110156117e55784816002811015156117b757fe5b602002015182828151811015156117ca57fe5b906020019060200201818152505080806001019150506117a0565b5060006117f28284612493565b1415611891577f3f3cfdb26fb5f9f1786ab4f1a1f9cd4c0b5e726cbdfc26e495261731aad44e396040518080602001828103825260228152602001807f5472616e73616374696f6e207375636365737366756c6c79207665726966696581526020017f642e00000000000000000000000000000000000000000000000000000000000081525060400191505060405180910390a1600192505050611898565b6000925050505b949350505050565b6000919050565b6000919050565b60008060009054906101000a900473ffffffffffffffffffffffffffffffffffffffff16905090565b3373ffffffffffffffffffffffffffffffffffffffff168273ffffffffffffffffffffffffffffffffffffffff161415151561191257600080fd5b80600560003373ffffffffffffffffffffffffffffffffffffffff1673ffffffffffffffffffffffffffffffffffffffff16815260200190815260200160002060008473ffffffffffffffffffffffffffffffffffffffff1673ffffffffffffffffffffffffffffffffffffffff16815260200190815260200160002060006101000a81548160ff0219169083151502179055508173ffffffffffffffffffffffffffffffffffffffff163373ffffffffffffffffffffffffffffffffffffffff167f17307eab39ab6107e8899845ad3d59bd9653f200f220920489ca2b5937696c3183604051808215151515815260200191505060405180910390a35050565b611a1f848484846115f8565b1515611a93576040517f08c379a000000000000000000000000000000000000000000000000000000000815260040180806020018281038252601f8152602001807f52657175697265732076616c696420736f6c7574696f6e202870726f6f66290081525060200191505060405180910390fd5b6000848484846040516020018085600260200280838360005b83811015611ac7578082015181840152602081019050611aac565b505050509050018460026000925b81841015611b1b5782846020020151600260200280838360005b83811015611b0a578082015181840152602081019050611aef565b505050509050019260010192611ad5565b9250505083600260200280838360005b83811015611b46578082015181840152602081019050611b2b565b5050505090500182600260200280838360005b83811015611b74578082015181840152602081019050611b59565b505050509050019450505050506040516020818303038152906040528051906020012090506015600082815260200190815260200160002060009054906101000a900460ff16151515611c2f576040517f08c379a000000000000000000000000000000000000000000000000000000000815260040180806020018281038252601b8152602001807f526571756972657320736f6c7574696f6e20697320756e69717565000000000081525060200191505060405180910390fd5b60016015600083815260200190815260200160002060006101000a81548160ff02191690831515021790555060006014805490509050611c6d613e92565b6080604051908101604052808381526020018973ffffffffffffffffffffffffffffffffffffffff168152602001848152602001600115158152509050601481908060018154018082558091505090600182039060005260206000209060040201600090919290919091506000820151816000015560208201518160010160006101000a81548173ffffffffffffffffffffffffffffffffffffffff021916908373ffffffffffffffffffffffffffffffffffffffff1602179055506040820151816002015560608201518160030160006101000a81548160ff02191690831515021790555050505080601660008b81526020019081526020016000206000820151816000015560208201518160010160006101000a81548173ffffffffffffffffffffffffffffffffffffffff021916908373ffffffffffffffffffffffffffffffffffffffff1602179055506040820151816002015560608201518160030160006101000a81548160ff0219169083151502179055509050507f6bc6afc76c0b332ba90fee021156bac0d12ed376d185f1615de6e5c4774f21d3898985604051808481526020018373ffffffffffffffffffffffffffffffffffffffff1673ffffffffffffffffffffffffffffffffffffffff168152602001828152602001935050505060405180910390a1505050505050505050565b611e718484846113e9565b611e7d8484848461261b565b1515611e8857600080fd5b50505050565b606060118054600181600116156101000203166002900480601f016020809104026020016040519081016040528092919081815260200182805460018160011615610100020316600290048015611f265780601f10611efb57610100808354040283529160200191611f26565b820191906000526020600020905b815481529060010190602001808311611f0957829003601f168201915b5050505050905090565b6060611f3b8261283e565b1515611f4657600080fd5b601260008381526020019081526020016000208054600181600116156101000203166002900480601f016020809104026020016040519081016040528092919081815260200182805460018160011615610100020316600290048015611fed5780601f10611fc257610100808354040283529160200191611fed565b820191906000526020600020905b815481529060010190602001808311611fd057829003601f168201915b50505050509050919050565b6000600560008473ffffffffffffffffffffffffffffffffffffffff1673ffffffffffffffffffffffffffffffffffffffff16815260200190815260200160002060008373ffffffffffffffffffffffffffffffffffffffff1673ffffffffffffffffffffffffffffffffffffffff16815260200190815260200160002060009054906101000a900460ff16905092915050565b6000809054906101000a900473ffffffffffffffffffffffffffffffffffffffff1673ffffffffffffffffffffffffffffffffffffffff163373ffffffffffffffffffffffffffffffffffffffff16141515612151576040517f08c379a000000000000000000000000000000000000000000000000000000000815260040180806020018281038252601c8152602001807f43616c6c6572206973206e6f7420636f6e7472616374206f776e65720000000081525060200191505060405180910390fd5b600073ffffffffffffffffffffffffffffffffffffffff168173ffffffffffffffffffffffffffffffffffffffff16141515156121f6576040517f08c379a000000000000000000000000000000000000000000000000000000000815260040180806020018281038252601d8152602001807f52657175697265732061646472657373206973206e6f7420656d70747900000081525060200191505060405180910390fd5b60008060009054906101000a900473ffffffffffffffffffffffffffffffffffffffff169050816000806101000a81548173ffffffffffffffffffffffffffffffffffffffff021916908373ffffffffffffffffffffffffffffffffffffffff1602179055507f8be0079c531659141344cd1fd0a4f28419497f9722a3daafe3b4186f6b6457e08183604051808373ffffffffffffffffffffffffffffffffffffffff1673ffffffffffffffffffffffffffffffffffffffff1681526020018273ffffffffffffffffffffffffffffffffffffffff1673ffffffffffffffffffffffffffffffffffffffff1681526020019250505060405180910390a15050565b600080612303836118a0565b90508073ffffffffffffffffffffffffffffffffffffffff168473ffffffffffffffffffffffffffffffffffffffff16148061237257508373ffffffffffffffffffffffffffffffffffffffff1661235a846110c4565b73ffffffffffffffffffffffffffffffffffffffff16145b8061238357506123828185611ff9565b5b91505092915050565b6123978383836128b0565b6123a183826128b5565b6123ab8282612a59565b505050565b60008060009054906101000a900473ffffffffffffffffffffffffffffffffffffffff1673ffffffffffffffffffffffffffffffffffffffff163373ffffffffffffffffffffffffffffffffffffffff16141515612476576040517f08c379a000000000000000000000000000000000000000000000000000000000815260040180806020018281038252601c8152602001807f43616c6c6572206973206e6f7420636f6e7472616374206f776e65720000000081525060200191505060405180910390fd5b6124808383612b20565b61248982612b41565b6001905092915050565b6000807f30644e72e131a029b85045b68181585d2833e84879b9709143e1f593f000000190506124c1613ed6565b6124c9612c94565b905080608001515160018651011415156124e257600080fd5b6124ea613f1f565b6040805190810160405280600081526020016000815250905060008090505b865181101561258e5783878281518110151561252157fe5b9060200190602002015110151561253757600080fd5b61257f8261257a85608001516001850181518110151561255357fe5b906020019060200201518a8581518110151561256b57fe5b906020019060200201516130ee565b61318a565b91508080600101915050612509565b506125b581836080015160008151811015156125a657fe5b9060200190602002015161318a565b90506125fb856000015186602001516125cd84613247565b85604001516125df8a60400151613247565b87606001516125f18960000151613247565b89602001516132e3565b151561260d5760019350505050612615565b600093505050505b92915050565b600061263c8473ffffffffffffffffffffffffffffffffffffffff16613467565b151561264b5760019050612836565b60008473ffffffffffffffffffffffffffffffffffffffff1663150b7a02338887876040518563ffffffff167c0100000000000000000000000000000000000000000000000000000000028152600401808573ffffffffffffffffffffffffffffffffffffffff1673ffffffffffffffffffffffffffffffffffffffff1681526020018473ffffffffffffffffffffffffffffffffffffffff1673ffffffffffffffffffffffffffffffffffffffff16815260200183815260200180602001828103825283818151815260200191508051906020019080838360005b83811015612742578082015181840152602081019050612727565b50505050905090810190601f16801561276f5780820380516001836020036101000a031916815260200191505b5095505050505050602060405180830381600087803b15801561279157600080fd5b505af11580156127a5573d6000803e3d6000fd5b505050506040513d60208110156127bb57600080fd5b8101908080519060200190929190505050905063150b7a027c0100000000000000000000000000000000000000000000000000000000027bffffffffffffffffffffffffffffffffffffffffffffffffffffffff1916817bffffffffffffffffffffffffffffffffffffffffffffffffffffffff1916149150505b949350505050565b6000806002600084815260200190815260200160002060009054906101000a900473ffffffffffffffffffffffffffffffffffffffff169050600073ffffffffffffffffffffffffffffffffffffffff168173ffffffffffffffffffffffffffffffffffffffff161415915050919050565b505050565b600061290d6001600660008673ffffffffffffffffffffffffffffffffffffffff1673ffffffffffffffffffffffffffffffffffffffff168152602001908152602001600020805490506134b390919063ffffffff16565b90506000600760008481526020019081526020016000205490508181141515612a00576000600660008673ffffffffffffffffffffffffffffffffffffffff1673ffffffffffffffffffffffffffffffffffffffff1681526020019081526020016000208381548110151561297e57fe5b9060005260206000200154905080600660008773ffffffffffffffffffffffffffffffffffffffff1673ffffffffffffffffffffffffffffffffffffffff168152602001908152602001600020838154811015156129d857fe5b9060005260206000200181905550816007600083815260200190815260200160002081905550505b600660008573ffffffffffffffffffffffffffffffffffffffff1673ffffffffffffffffffffffffffffffffffffffff168152602001908152602001600020805480919060019003612a529190613f39565b5050505050565b600660008373ffffffffffffffffffffffffffffffffffffffff1673ffffffffffffffffffffffffffffffffffffffff168152602001908152602001600020805490506007600083815260200190815260200160002081905550600660008373ffffffffffffffffffffffffffffffffffffffff1673ffffffffffffffffffffffffffffffffffffffff1681526020019081526020016000208190806001815401808255809150509060018203906000526020600020016000909192909190915055505050565b612b2a82826134fd565b612b348282612a59565b612b3d81613501565b5050565b612b4a8161283e565b1515612bbe576040517f08c379a00000000000000000000000000000000000000000000000000000000081526004018080602001828103825260158152602001807f526571756972657320746f6b656e20657869737473000000000000000000000081525060200191505060405180910390fd5b612c6a60118054600181600116156101000203166002900480601f016020809104026020016040519081016040528092919081815260200182805460018160011615610100020316600290048015612c575780601f10612c2c57610100808354040283529160200191612c57565b820191906000526020600020905b815481529060010190602001808311612c3a57829003601f168201915b5050505050612c658361354d565b6136a6565b601260008381526020019081526020016000209080519060200190612c90929190613f65565b5050565b612c9c613ed6565b60408051908101604052807f2a590bd9e20b185861076215658853fcf4d9d6c3c8ab22ebc35d78b2d9ad9bb281526020017f249c2f5f3d1fe6336072132343f097619de6bdaa4d270c91e356c23fa206fabe8152508160000181905250604080519081016040528060408051908101604052807f1b110ae4ef7113f35b3b8c4bc593e1c5d762dd75d44fee267ea6b789acd2c28e81526020017f2867c966f64fecd22e7320d29555f3110e6c5676d266938cbdd3995501dba399815250815260200160408051908101604052807f262ac525078e69d3497c6bf6b5d331a0d88907eb9b042cb902f15869a22fdcb181526020017f146ebadb6ee2eb0dde6fcd635bc1bfad4b21e7f2793804a58c81ccac0ceb470a8152508152508160200181905250604080519081016040528060408051908101604052807f0d1aab11c456782df500565c4cee6b0e0aabd98439f316fa752b786aa4b47dcd81526020017f1af9603df4488f26d782e6cbf1f1bca629db38f977614d0154cd0f3e4a0dc3c0815250815260200160408051908101604052807f235031b743afdae9097ec4e4b5fddb3595f7c3efe3be8b7be8179f29bfdeaebf81526020017f0a4b65ea0df847c39a116036d5e12914295905b22d97a5f9e7e534d7c13dc6738152508152508160400181905250604080519081016040528060408051908101604052807f09de48ddc840d1322da638c17c9ec1d96baa17af9797aa0050ea5d47cf2d6ccc81526020017f1daf658a60fa46fab0d0d0c9ebc9987c0493924c88001cb13e8efa081461c20c815250815260200160408051908101604052807f1fda4057b9347e015eceee84a0c7e9d649d978cbba1f921a15c2621215c0a11f81526020017f29e42558290d54cb82db2803b51c90336ba55da6a402af99d977bc2c8e64a86d81525081525081606001819052506003604051908082528060200260200182016040528015612f8357816020015b612f70613fe5565b815260200190600190039081612f685790505b50816080018190525060408051908101604052807f2048d2da81239d14492ddcc87c7aef352ef6f767a2cbaeef050abb2d052472ff81526020017f1d1930dac988584da7f01df25234a4cfac74b167abcfe2dfe31766dabcc2189581525081608001516000815181101515612ff457fe5b9060200190602002018190525060408051908101604052807f1d968de6af510d704b317273c045d456baaa1dde8ed9ca77e90fb3c26ef00b2f81526020017f08731ae220b1cbbe94ff304b6bb579df6d45b615701e42b28fc6514b433351f98152508160800151600181518110151561306957fe5b9060200190602002018190525060408051908101604052807f0e00b0259a57087a0ba3aefaf4d62d81ff7810814a7d9a51be8d57a9a773230f81526020017f0d20d1c1029ed9ae0e0586c0d49e81e692d04729cff50592468d14cbe02f9411815250816080015160028151811015156130de57fe5b9060200190602002018190525090565b6130f6613f1f565b6130fe613fff565b836000015181600060038110151561311257fe5b602002018181525050836020015181600160038110151561312f57fe5b6020020181815250508281600260038110151561314857fe5b6020020181815250506000606083608084600060076107d05a03f19050806000811461317357613175565bfe5b5080151561318257600080fd5b505092915050565b613192613f1f565b61319a614022565b83600001518160006004811015156131ae57fe5b60200201818152505083602001518160016004811015156131cb57fe5b60200201818152505082600001518160026004811015156131e857fe5b602002018181525050826020015181600360048110151561320557fe5b602002018181525050600060608360c084600060066107d05a03f19050806000811461323057613232565bfe5b5080151561323f57600080fd5b505092915050565b61324f613f1f565b60007f30644e72e131a029b85045b68181585d97816a916871ca8d3c208c16d87cfd4790506000836000015114801561328c575060008360200151145b156132b05760408051908101604052806000815260200160008152509150506132de565b6040805190810160405280846000015181526020018285602001518115156132d457fe5b0683038152509150505b919050565b60006060600460405190808252806020026020018201604052801561332257816020015b61330f613fe5565b8152602001906001900390816133075790505b5090506060600460405190808252806020026020018201604052801561336257816020015b61334f614045565b8152602001906001900390816133475790505b5090508a82600081518110151561337557fe5b906020019060200201819052508882600181518110151561339257fe5b90602001906020020181905250868260028151811015156133af57fe5b90602001906020020181905250848260038151811015156133cc57fe5b90602001906020020181905250898160008151811015156133e957fe5b906020019060200201819052508781600181518110151561340657fe5b906020019060200201819052508581600281518110151561342357fe5b906020019060200201819052508381600381518110151561344057fe5b9060200190602002018190525061345782826136ed565b9250505098975050505050505050565b60008060007fc5d2460186f7233c927e7db2dcc703c0e500b653ca82273b7bfad8045d85a4706001029050833f91508082141580156134aa575060006001028214155b92505050919050565b60006134f583836040805190810160405280601e81526020017f536166654d6174683a207375627472616374696f6e206f766572666c6f770000815250613980565b905092915050565b5050565b6008805490506009600083815260200190815260200160002081905550600881908060018154018082558091505090600182039060005260206000200160009091929091909150555050565b60606000821415613595576040805190810160405280600181526020017f300000000000000000000000000000000000000000000000000000000000000081525090506136a1565b600082905060005b6000821415156135c3578080600101915050600a828115156135bb57fe5b04915061359d565b6060816040519080825280601f01601f1916602001820160405280156135f85781602001600182028038833980820191505090505b50905060006001830390505b60008614151561369957600a8681151561361a57fe5b066030017f01000000000000000000000000000000000000000000000000000000000000000282828060019003935081518110151561365557fe5b9060200101907effffffffffffffffffffffffffffffffffffffffffffffffffffffffffffff1916908160001a905350600a8681151561369157fe5b049550613604565b819450505050505b919050565b60606136e58383602060405190810160405280600081525060206040519081016040528060008152506020604051908101604052806000815250613a42565b905092915050565b6000815183511415156136ff57600080fd5b600083519050600060068202905060608160405190808252806020026020018201604052801561373e5781602001602082028038833980820191505090505b50905060008090505b8381101561391c57868181518110151561375d57fe5b9060200190602002015160000151826000600684020181518110151561377f57fe5b9060200190602002018181525050868181518110151561379b57fe5b906020019060200201516020015182600160068402018151811015156137bd57fe5b906020019060200201818152505085818151811015156137d957fe5b906020019060200201516000015160006002811015156137f557fe5b6020020151826002600684020181518110151561380e57fe5b9060200190602002018181525050858181518110151561382a57fe5b9060200190602002015160000151600160028110151561384657fe5b6020020151826003600684020181518110151561385f57fe5b9060200190602002018181525050858181518110151561387b57fe5b9060200190602002015160200151600060028110151561389757fe5b602002015182600460068402018151811015156138b057fe5b906020019060200201818152505085818151811015156138cc57fe5b906020019060200201516020015160016002811015156138e857fe5b6020020151826005600684020181518110151561390157fe5b90602001906020020181815250508080600101915050613747565b5061392561406c565b60006020826020860260208601600060086107d05a03f19050806000811461394c5761394e565bfe5b5080151561395b57600080fd5b600082600060018110151561396c57fe5b602002015114159550505050505092915050565b60008383111582901515613a2f576040517f08c379a00000000000000000000000000000000000000000000000000000000081526004018080602001828103825283818151815260200191508051906020019080838360005b838110156139f45780820151818401526020810190506139d9565b50505050905090810190601f168015613a215780820380516001836020036101000a031916815260200191505b509250505060405180910390fd5b5060008385039050809150509392505050565b6060808690506060869050606086905060608690506060869050606081518351855187518951010101016040519080825280601f01601f191660200182016040528015613a9e5781602001600182028038833980820191505090505b509050606081905060008090506000809050600090505b8851811015613b68578881815181101515613acc57fe5b9060200101517f010000000000000000000000000000000000000000000000000000000000000090047f0100000000000000000000000000000000000000000000000000000000000000028383806001019450815181101515613b2b57fe5b9060200101907effffffffffffffffffffffffffffffffffffffffffffffffffffffffffffff1916908160001a9053508080600101915050613ab5565b600090505b8751811015613c20578781815181101515613b8457fe5b9060200101517f010000000000000000000000000000000000000000000000000000000000000090047f0100000000000000000000000000000000000000000000000000000000000000028383806001019450815181101515613be357fe5b9060200101907effffffffffffffffffffffffffffffffffffffffffffffffffffffffffffff1916908160001a9053508080600101915050613b6d565b600090505b8651811015613cd8578681815181101515613c3c57fe5b9060200101517f010000000000000000000000000000000000000000000000000000000000000090047f0100000000000000000000000000000000000000000000000000000000000000028383806001019450815181101515613c9b57fe5b9060200101907effffffffffffffffffffffffffffffffffffffffffffffffffffffffffffff1916908160001a9053508080600101915050613c25565b600090505b8551811015613d90578581815181101515613cf457fe5b9060200101517f010000000000000000000000000000000000000000000000000000000000000090047f0100000000000000000000000000000000000000000000000000000000000000028383806001019450815181101515613d5357fe5b9060200101907effffffffffffffffffffffffffffffffffffffffffffffffffffffffffffff1916908160001a9053508080600101915050613cdd565b600090505b8451811015613e48578481815181101515613dac57fe5b9060200101517f010000000000000000000000000000000000000000000000000000000000000090047f0100000000000000000000000000000000000000000000000000000000000000028383806001019450815181101515613e0b57fe5b9060200101907effffffffffffffffffffffffffffffffffffffffffffffffffffffffffffff1916908160001a9053508080600101915050613d95565b82995050505050505050505095945050505050565b61010060405190810160405280613e72613fe5565b8152602001613e7f614045565b8152602001613e8c613fe5565b81525090565b60806040519081016040528060008152602001600073ffffffffffffffffffffffffffffffffffffffff168152602001600080191681526020016000151581525090565b6101e060405190810160405280613eeb613fe5565b8152602001613ef8614045565b8152602001613f05614045565b8152602001613f12614045565b8152602001606081525090565b604080519081016040528060008152602001600081525090565b815481835581811115613f6057818360005260206000209182019101613f5f919061408f565b5b505050565b828054600181600116156101000203166002900490600052602060002090601f016020900481019282601f10613fa657805160ff1916838001178555613fd4565b82800160010185558215613fd4579182015b82811115613fd3578251825591602001919060010190613fb8565b5b509050613fe1919061408f565b5090565b604080519081016040528060008152602001600081525090565b606060405190810160405280600390602082028038833980820191505090505090565b608060405190810160405280600490602082028038833980820191505090505090565b6080604051908101604052806140596140b4565b81526020016140666140b4565b81525090565b602060405190810160405280600190602082028038833980820191505090505090565b6140b191905b808211156140ad576000816000905550600101614095565b5090565b90565b604080519081016040528060029060208202803883398082019150509050509056fea165627a7a72305820148af89aa88edfed4b8ee474352d0f5e494cdba7bbd568e8681f6bbdea8ad4690029",
  "source": "pragma solidity ^0.5.0;\n\nimport \"./ERC721Mintable.sol\";\nimport \"./Verifier.sol\";\n\n// TODO define another contract named SolnSquareVerifier that inherits from your ERC721Mintable class\ncontract SolnSquareVerifier is Verifier, ERC721MintableComplete(\"Capstones\", \"[\") {\n\n    // TODO define a contract call to the zokrates generated solidity contract <Verifier> or <renamedVerifier>\n    // Verifier Verifier_;\n\n    constructor() public {\n    }\n\n    // constructor(address verifierAddress) public {\n    //     Verifier_ = Verifier(verifierAddress);\n    // }\n\n    // TODO define a solutions struct that can hold an index & an address\n    struct Solution {\n        uint256 index;\n        address sender;\n        bytes32 solutionKey;\n        bool exists;\n    }\n\n    // TODO define an array of the above struct\n    Solution[] solutions;\n\n    // TODO define a mapping to store unique solutions submitted\n    mapping (bytes32 => bool) solutionKeyToSubmissionStatus;\n    mapping (uint256 => Solution) tokenIdToSolution;\n\n    // TODO Create an event to emit when a solution is added\n    event SolutionAdded(uint256 tokenId, address sender, bytes32 solutionKey);\n\n    // TODO Create a function to add the solutions to the array and emit the event\n    function addSolution(\n        uint256 tokenId,\n        address sender,\n        uint[2] memory a,\n        uint[2][2] memory b,\n        uint[2] memory c,\n        uint[2] memory input\n    )\n        public\n    {\n        require(verifyTx(a, b, c, input), \"Requires valid solution (proof)\");\n\n        // Add unique solution\n        bytes32 solutionKey = keccak256(abi.encodePacked(a, b, c, input));\n        require(\n            !solutionKeyToSubmissionStatus[solutionKey],\n            \"Requires solution is unique\");\n        solutionKeyToSubmissionStatus[solutionKey] = true;\n\n        uint256 index = solutions.length;\n        // index in solutions array, caller, solution key, exists status\n        Solution memory solution = Solution(\n            index, sender, solutionKey, true);\n        solutions.push(solution);\n        // Map tokenId to added solution\n        tokenIdToSolution[tokenId] = solution;\n\n        emit SolutionAdded(tokenId, sender, solutionKey);\n    }\n\n    // TODO Create a function to mint new NFT only after the solution has been verified\n    //  - make sure the solution is unique (has not been used before)\n    //  - make sure you handle metadata as well as tokenSuplly\n    function mint(address to, uint256 tokenId) public returns (bool) {\n        require(\n            tokenIdToSolution[tokenId].exists,\n            \"Requires solution has been added for token\");\n\n        return super.mint(to, tokenId);\n    }\n}\n\n  \n\n\n\n\n\n\n\n\n\n\n\n\n\n\n\n\n\n\n\n\n\n\n\n\n\n\n",
  "sourcePath": "/home/crowe/Blockchain-Capstone/eth-contracts/contracts/SolnSquareVerifier.sol",
  "compiler": {
    "name": "solc",
    "version": "0.5.1+commit.c8a2cb62.Emscripten.clang"
  },
  "schemaVersion": "3.4.9",
  "updatedAt": "2022-09-08T07:23:00.214Z",
  "networkType": "ethereum",
  "devdoc": {
    "methods": {
      "isApprovedForAll(address,address)": {
        "details": "Tells whether an operator is approved by a given owner",
        "params": {
          "operator": "operator address which you want to query the approval of",
          "owner": "owner address which you want to query the approval of"
        },
        "return": "bool whether the given operator is approved by the given owner"
      },
      "setApprovalForAll(address,bool)": {
        "details": "Sets or unsets the approval of a given operator An operator is allowed to transfer all tokens of the sender on their behalf",
        "params": {
          "approved": "representing the status of the approval to be set",
          "to": "operator address to set the approval"
        }
      },
      "supportsInterface(bytes4)": {
        "details": "implement supportsInterface(bytes4) using a lookup table"
      },
      "tokenByIndex(uint256)": {
        "details": "Gets the token ID at a given index of all the tokens in this contract Reverts if the index is greater or equal to the total number of tokens",
        "params": {
          "index": "uint256 representing the index to be accessed of the tokens list"
        },
        "return": "uint256 token ID at the given index of the tokens list"
      },
      "tokenOfOwnerByIndex(address,uint256)": {
        "details": "Gets the token ID at a given index of the tokens list of the requested owner",
        "params": {
          "index": "uint256 representing the index to be accessed of the requested tokens list",
          "owner": "address owning the tokens list to be accessed"
        },
        "return": "uint256 token ID at the given index of the tokens list owned by the requested address"
      },
      "totalSupply()": {
        "details": "Gets the total amount of tokens stored by the contract",
        "return": "uint256 representing the total amount of tokens"
      }
    }
  },
  "userdoc": {
    "methods": {}
  }
}